:040000000CEF00F011
:10000800FACF0BF0FBCF0CF0E9CF0DF07DED0CF043
:100018003FEF12F00001000E0001A56F00018C0EE9
:100028000001A46F87EF04F00001B751250AD8B486
:100038000CD088C0D9FF89C0DAFF0001B7C0DFFF44
:100048000001884B892B87EF04F0000E0001A76F91
:10005800000E0001A66F03D00001A7851ED0000185
:100068008AC0F6FF00018BC0F7FF00018A4B8B2B7B
:10007800F86A08000001F5CFB7F00001B751000A8F
:10008800D8B499EF04F0640AD8B407D0020AD8B4F7
:10009800E3D70F0AD8A487EF04F0070E0001A715CD
:1000A800D8B448D3000E0001AC6F060E0001AB6F48
:1000B800A4C0D9FFA5C0DAFF0001DECFB4F000016B
:1000C800DECFB5F00001DDCFB6F0030E0001A427A6
:1000D800000E0001A5230001B651800A800F07E138
:1000E800000E0001B55D03E1000E0001B45DD8B05B
:1000F80011D0B4C019F0B5C01AF0B6C01BF0C6ECE8
:1001080013F019C0B4F01AC0B5F01BC0B6F0030E56
:100118000001A613000E0001B36F000E0001B26FBC
:100128007F0E0001B6150001B5110001B411D8B455
:100138009CD0820E00018F6FFF0E906F0001B4C03B
:1001480091F00001B5C092F00001B6C093F0000133
:10015800B7C094F0100E06D00001D89094339333B2
:1001680092339133E82EF8D70001915100018F2581
:100178000001B26F000E000190210001B36F000171
:10018800B207D8A0B307B2C027F0B3C028F0000E5A
:100198002A6E030E296EB3EC13F027C0B2F028C004
:1001A800B3F0B2C01FF0B3C020F0000E226E0A0EEA
:1001B800216EFBEC0DF01FC0B2F020C0B3F00001BF
:1001C800B351800AF36E800EF35C000ED8B4B25DB2
:1001D800D8B004D00001B207D8A0B3070001B251CB
:1001E8000008A0EC04F06CC0A8F06DC0A9F06EC0C7
:1001F800AAF0A8C060F0A9C061F0AAC062F0B4C0BB
:1002080063F0B5C064F0B6C065F06FEC09F060C08B
:10021800A8F061C0A9F062C0AAF0A8C019F0A9C0EE
:100228001AF0AAC01BF0000E1C6E800E1D6E3F0E49
:100238001E6E2AEC0FF0D8B005D00001B207D8A086
:10024800B30713D0A8C019F0A9C01AF0AAC01BF0B0
:10025800000E1C6E200E1D6E410E1E6E2AEC0FF055
:10026800D8A003D00001B24BB32B0001AC51800AD7
:10027800F36E800EF35C0D0ED8B4AB5DD8B018D019
:10028800B4C076F0B5C077F0B6C078F00001AB51D5
:10029800DCEC06F06CC079F06DC07AF06EC07BF0D3
:1002A8002FEC08F076C0B4F077C0B5F078C0B6F09F
:1002B8000001B351800AF36E800EF35C0A0ED8B4C5
:1002C800B25DD8B029D07F0E0001B6150001B51176
:1002D8000001B411D8B46CD0B4C073F0B5C074F0D8
:1002E800B6C075F01BEC0AF073C08FF074C090F0C4
:1002F80075C091F076C092F0000192518F11901163
:100308009111D8A455D00001B351800A800F020E74
:10031800D8B4B25DD8A04CD0A8C019F0A9C01AF0C2
:10032800AAC01BF0700E1C6E890E1D6E400E1E6E4C
:100338002AEC0FF0D8B003D00001F70E02D000016C
:10034800F80E0001B227FF0E0001B3230001B251DD
:10035800A0EC04F06CC0A8F06DC0A9F06EC0AAF0C3
:10036800B4C019F0B5C01AF0B6C01BF0A8C01CF094
:10037800A9C01DF0AAC01EF0FDEC0BF019C098F042
:100388001AC099F01BC09AF01CC09BF098C0ADF041
:1003980099C0AEF09AC0AFF09BC0B0F0000E00015B
:1003A800B46F000E0001B56F000E0001B66F34D0B7
:1003B800B4C073F0B5C074F0B6C075F01BEC0AF0A9
:1003C80073C0ADF074C0AEF075C0AFF076C0B0F0D9
:1003D800B4C082F0B5C083F0B6C084F0ADC021F0DF
:1003E800AEC022F0AFC023F0B0C024F0C1EC11F0D1
:1003F80021C085F022C086F023C087F088EC12F077
:1004080082C0B4F083C0B5F084C0B6F0000E00011D
:10041800B36F000E0001B26F010E0001B76F00014B
:10042800B7510A0AD8B421D00001B751040DCB0E38
:10043800F324F66E7E0EF420F76EF86A000EF822AA
:100448000900F5500001AD5D0900F5500001AE59F5
:100458000900F5500001AF590900F5500001B059E5
:10046800D8A003D00001B72BDAD7030E0001A615D8
:1004780000018F6F000E0001A7150001906F0001A9
:1004880090518F11D8B455D088C0D9FF89C0DAFFF0
:100498002D0E4BD0ADC019F0AEC01AF0AFC01BF096
:1004A800B0C01CF00001B751040DCB0EF324F66E5A
:1004B8007E0EF420F76EF86A000EF8220900F5CFD8
:1004C8001DF00900F5CF1EF00900F5CF1FF00A0056
:1004D800F5CF20F0B5EC0FF019C09CF01AC09DF0D4
:1004E8001BC09EF01CC09FF09CC026F09DC027F04A
:1004F8009EC028F09FC029F00A0E2A6E000E2B6EAF
:10050800000E2C6E000E2D6E8EEC11F026C09CF0A5
:1005180027C09DF028C09EF029C09FF000019C5183
:10052800300F88C0D9FF89C0DAFFDF6E0001884B21
:10053800892B0001B7070001B729D8B40ED0AAD774
:1005480088C0D9FF89C0DAFF300EDF6E0001884B02
:10055800892B0001B207D8A0B3070001B351800A64
:10056800F36E800EF35C010ED8B4B25DD8B0E8D754
:100578000001AC51800A800F090ED8B4AB5DD8A039
:1005880004D0080E0001B76F02D0ABC0B7F000016D
:10059800B7510001AB5F000E0001B7BFFF0E0001AD
:1005A800AC5B0001B751D8B409D088C0D9FF89C065
:1005B800DAFF2E0EDF6E0001884B892B0001B75140
:1005C800A0EC04F06CC095F06DC096F06EC097F08A
:1005D800B4C063F0B5C064F0B6C065F095C060F013
:1005E80096C061F097C062F06FEC09F060C073F0DC
:1005F80061C074F062C075F01BEC0AF073C0ADF016
:1006080074C0AEF075C0AFF076C0B0F079D0ADC0B0
:1006180019F0AEC01AF0AFC01BF0B0C01CF000015A
:10062800B751040DCB0EF324F66E7E0EF420F76E50
:10063800F86A000EF8220900F5CF1DF00900F5CF81
:100648001EF00900F5CF1FF00A00F5CF20F0B5EC39
:100658000FF019C0A0F01AC0A1F01BC0A2F01CC076
:10066800A3F0A0C026F0A1C027F0A2C028F0A3C024
:1006780029F00A0E2A6E000E2B6E000E2C6E000E4C
:100688002D6E8EEC11F026C0A0F027C0A1F028C076
:10069800A2F029C0A3F00001A051300F88C0D9FFF3
:1006A80089C0DAFFDF6E0001884B892BADC026F0C8
:1006B800AEC027F0AFC028F0B0C029F00001B75194
:1006C800040DCB0EF324F66E7E0EF420F76EF86A56
:1006D800000EF8220900F5CF2AF00900F5CF2BF01B
:1006E8000900F5CF2CF00A00F5CF2DF08EEC11F0B3
:1006F80026C0ADF027C0AEF028C0AFF029C0B0F0DA
:100708000001B7070001B729D8B40ED080D788C038
:10071800D9FF89C0DAFF300EDF6E0001884B892BC4
:100728000001AB07D8A0AC070001AC51AB11D8B49D
:10073800EAD0EDD7A4C0D9FFA5C0DAFF0001DECF0B
:10074800ADF00001DDCFAEF00001000E0001AEBF3C
:10075800FF0E0001AF6F0001B06F020E0001A42769
:10076800000E0001A5230001B051800A800F0BE1A3
:10077800000E0001AF5D07E1000E0001AE5D03E170
:10078800000E0001AD5DD8B012D0030E0001A61313
:100798000001B01F0001AF1F0001AE1F0001AD6DC9
:1007A800000E0001AE230001AF230001B023010EAB
:1007B8000001B76F0001B7510A0AD8B421D000016F
:1007C800B751040DCB0EF324F66E7E0EF420F76EAF
:1007D800F86A000EF8220900F5500001AD5D090025
:1007E800F5500001AE590900F5500001AF59090054
:1007F800F5500001B059D8A003D00001B72BDAD7C3
:10080800030E0001A61500018F6F000E0001A71549
:100818000001906F000190518F11D8B409D088C0A1
:10082800D9FF89C0DAFF2D0EDF6E0001884B892BB6
:100838000001B7510001AB6F0001AC6B0001ABBF09
:10084800AC0757D00001ABC08FF00001ACC090F0EE
:100858000001D8908F3790370001D8908F379037A4
:10086800CB0E00018F25F66E7E0E9021F76EF86A8A
:10087800000EF8220900F5CF1DF00900F5CF1EF093
:100888000900F5CF1FF00A00F5CF20F0ADC019F030
:10089800AEC01AF0AFC01BF0B0C01CF0B5EC0FF042
:1008A80019C026F01AC027F01BC028F01CC029F078
:1008B8000A0E2A6E000E2B6E000E2C6E000E2D6E88
:1008C8008EEC11F026C091F027C092F028C093F06A
:1008D80029C094F000019151300F0001B76F88C012
:1008E800D9FF89C0DAFF0001B7C0DFFF0001884BDC
:1008F800892B0001AB07D8A0AC070001AB29D8B4FD
:10090800AC29D8A49FD700018AC0F6FF00018BC08C
:10091800F7FF00018A4B8B2BF86A08000001F5CF1E
:10092800B7F00001B76718EF00F088C0D9FF89C099
:10093800DAFF000EDF6E12000001726F000172AF65
:1009480011D10001726D00017251800A120FD8A0F6
:10095800A0D0000E2A6E030E296E000E226E0A0E1B
:10096800216E000E1C6E640E1B6E00017251196E12
:100978001A6A19BE1A06E2EC0EF019C01FF01AC066
:1009880020F0FBEC0DF0090E1F24276E000E20202E
:10099800286EB3EC13F0F30E2724F66E7E0E282093
:1009A800F76EF86A000EF82209000001F5CF63F02F
:1009B80009000001F5CF64F00A000001F5CF65F0E9
:1009C800000E226E640E216E000172511F6E206AA5
:1009D8001FBE2006FBEC0DF0120E1F24276E000E22
:1009E8002020286E000E2A6E030E296EB3EC13F039
:1009F800F30E2724F66E7E0E2820F76EF86A000E96
:100A0800F82209000001F5CF60F009000001F5CFD8
:100A180061F00A000001F5CF62F06FEC09F060C0E8
:100A28006FF061C070F062C071F06FC060F070C0AC
:100A380061F071C062F0000E2A6E030E296E000E7E
:100A48001C6E0A0E1B6E00017251196E1A6A19BECD
:100A58001A06E2EC0EF019C027F01AC028F0B3EC21
:100A680013F0F30E2724F66E7E0E2820F76EF86A30
:100A7800000EF82209000001F5CF63F0090000011B
:100A8800F5CF64F00A000001F5CF65F06FEC09F0CE
:100A98006FD100017251800A750FD8A05BD0000E8B
:100AA800226E0A0E216E000172511F6E206A1FBE4F
:100AB8002006FBEC0DF0090E1F24276E000E2020E7
:100AC800286E000E2A6E030E296EB3EC13F0F30E97
:100AD8002724F66E7E0E2820F76EF86A000EF8229C
:100AE80009000001F5CF60F009000001F5CF61F0C1
:100AF8000A000001F5CF62F0000E2A6E030E296E7F
:100B0800000E1C6E0A0E1B6E00017251196E1A6AD5
:100B180019BE1A06E2EC0EF019C027F01AC028F028
:100B2800B3EC13F0F30E2724F66E7E0E2820F76E32
:100B3800F86A000EF82209000001F5CF63F00900F9
:100B48000001F5CF64F00A000001F5CF65F06FEC05
:100B580009F00ED100017251030DF30EF324F66E65
:100B68007E0E14D100017251800A120FD8A0A0D0B5
:100B7800000E2A6E030E296E000E226E0A0E216EDA
:100B8800000E1C6E640E1B6E00017251196E1A6AFB
:100B980019BE1A06E2EC0EF019C01FF01AC020F0B8
:100BA800FBEC0DF0090E1F24276E000E2020286E86
:100BB800B3EC13F01A0E2724F66E7F0E2820F76E7A
:100BC800F86A000EF82209000001F5CF63F0090069
:100BD8000001F5CF64F00A000001F5CF65F0000EC2
:100BE800226E640E216E000172511F6E206A1FBEB4
:100BF8002006FBEC0DF0120E1F24276E000E20209D
:100C0800286E000E2A6E030E296EB3EC13F01A0E2E
:100C18002724F66E7F0E2820F76EF86A000EF82259
:100C280009000001F5CF60F009000001F5CF61F07F
:100C38000A000001F5CF62F06FEC09F060C06FF0B8
:100C480061C070F062C071F06FC060F070C061F098
:100C580071C062F0000E2A6E030E296E000E1C6E23
:100C68000A0E1B6E00017251196E1A6A19BE1A0615
:100C7800E2EC0EF019C027F01AC028F0B3EC13F01C
:100C88001A0E2724F66E7F0E2820F76EF86A000EDB
:100C9800F82209000001F5CF63F009000001F5CF43
:100CA80064F00A000001F5CF65F06FEC09F060D040
:100CB80000017251800A750FD8A061D0000E226E13
:100CC8000A0E216E000172511F6E206A1FBE200697
:100CD800FBEC0DF0090E1F24276E000E2020286E55
:100CE800000E2A6E030E296EB3EC13F01A0E272499
:100CF800F66E7F0E2820F76EF86A000EF8220900BB
:100D08000001F5CF60F009000001F5CF61F00A009D
:100D18000001F5CF62F0000E2A6E030E296E000E58
:100D28001C6E0A0E1B6E00017251196E1A6A19BEEA
:100D38001A06E2EC0EF019C027F01AC028F0B3EC3E
:100D480013F01A0E2724F66E7F0E2820F76EF86A25
:100D5800000EF82209000001F5CF63F00900000138
:100D6800F5CF64F00A000001F5CF65F06FEC09F0EB
:100D780060C06CF061C06DF062C06EF018D0000108
:100D88007251030D1A0EF324F66E7F0EF420F76EDF
:100D9800F86A000EF82209000001F5CF6CF009008E
:100DA8000001F5CF6DF00A000001F5CF6EF01200DA
:100DB8000001756F6D0E00017565B1D0000E2A6EC9
:100DC800030E296E000E226E0A0E216E000E1C6E96
:100DD800640E1B6E000175C019F01A6AE2EC0EF081
:100DE80019C01FF01AC020F0FBEC0DF0090E1F24EB
:100DF800276E000E2020286EB3EC13F0F30E272484
:100E0800F66E7E0E2820F76EF86A000EF8220900AA
:100E18000001F5CF63F009000001F5CF64F00A0086
:100E28000001F5CF65F0000E226E640E216E000100
:100E380075C01FF0206AFBEC0DF0120E1F24276E00
:100E4800000E2020286E000E2A6E030E296EB3ECC9
:100E580013F0F30E2724F66E7E0E2820F76EF86A3C
:100E6800000EF82209000001F5CF60F0090000012A
:100E7800F5CF61F00A000001F5CF62F06FEC09F0E0
:100E880060C072F061C073F062C074F0000E2A6E28
:100E9800030E296E000E1C6E0A0E1B6E000175C033
:100EA80019F01A6AE2EC0EF019C027F01AC028F0FF
:100EB800B3EC13F0F30E2724F66E7E0E2820F76E9F
:100EC800F86A000EF82209000001F5CF63F0090066
:100ED8000001F5CF64F00A000001F5CF65F072C09B
:100EE80060F073C061F074C062F06FEC09F060C02C
:100EF8006FF061C070F062C071F06FC060F070C0D8
:100F080061F071C062F0000E0001636F000E000115
:100F1800646F3F0E0001656F6FEC09F095D00A0E03
:100F2800000175656ED0000E2A6E030E296E000E44
:100F38001C6E0A0E1B6E000175C019F01A6AE2ECED
:100F48000EF019C027F01AC028F0B3EC13F0F30E16
:100F58002724F66E7E0E2820F76EF86A000EF82217
:100F680009000001F5CF63F009000001F5CF64F036
:100F78000A000001F5CF65F0000E226E0A0E216E00
:100F8800000175C01FF0206AFBEC0DF0090E1F244C
:100F9800276E000E2020286E000E2A6E030E296E82
:100FA800B3EC13F0F30E2724F66E7E0E2820F76EAE
:100FB800F86A000EF82209000001F5CF60F0090078
:100FC8000001F5CF61F00A000001F5CF62F06FEC87
:100FD80009F060C072F061C073F062C074F072C052
:100FE80060F073C061F074C062F0000E0001636FBE
:100FF800000E0001646F3F0E0001656F6FEC09F091
:1010080023D000017551030DF30EF324F66E7E0E06
:10101800F420F76EF86A000EF82209000001F5CFF7
:1010280060F009000001F5CF61F00A000001F5CF7A
:1010380062F0000E0001636F000E0001646F3F0E46
:101048000001656F6FEC09F060C06CF061C06DF075
:1010580062C06EF01200000178C07CF000017D6B68
:101068007E6B0001773500017C3701E37D8100014B
:101078007C510001816F00017BC07CF000017D6B19
:101088007E6B00017A3500017C3701E37D81000128
:101098007C510001806F00018151D8B412D0000149
:1010A80080510001815DD8B013D000018151000842
:1010B8000001802500017C6F190E00017C5DD8A01D
:1010C80007D079C076F07AC077F07BC078F002D18B
:1010D80000018051D8B412D0000181510001805D17
:1010E800D8B013D00001805100080001812500010B
:1010F8007C6F190E00017C5DD8A007D076C076F011
:1011080077C077F078C078F0E5D0060E00017F6FE1
:10111800000178AF02D000017F8F00017BAF02D0C1
:1011280000017F8D0001778FFF0E00017617FF0EFB
:1011380000017717000E0001781700017A8FFF0E63
:1011480000017917FF0E00017A17000E00017B17C6
:10115800000180510001815DD8B02AD00001D890EB
:101168000001793700017A3700017B3700018007D9
:101178000001805100018119D8B414D000017F0703
:101188007FC07CF0070E00017C17D8B40BD0E6D7DF
:101198000001D890000178330001773300017633DD
:1011A8000001812B0001805100018163F1D72FD00C
:1011B800000181510001805DD8B029D00001D8908C
:1011C8000001763700017737000178370001810781
:1011D8000001805100018119D8B414D000017F07A3
:1011E8007FC07CF0070E00017C17D8B40BD0E6D77F
:1011F8000001D89000017B3300017A330001793374
:101208000001802B0001805100018163F1D70001AA
:101218007FAF12D0FF0E0001761BFF0E0001771B77
:10122800FF0E0001781B010E00017627000E000159
:101238007723000E0001782300017FAD12D0FF0E46
:101248000001791BFF0E00017A1BFF0E00017B1BBA
:10125800010E00017927000E00017A23000E00011B
:101268007B23000E00017F6F000176510001792772
:101278000001775100017A230001785100017B2396
:1012880000017BAF15D0FF0E0001791BFF0E000196
:101298007A1BFF0E00017B1B010E00017927000E4F
:1012A80000017A23000E00017B23010E00017F6FED
:1012B80079C019F07AC01AF07BC01BF081C01CF00D
:1012C8007FC01DF054EC0DF019C076F01AC077F00D
:1012D8001BC078F01200000162C02DF02E6A2F6A40
:1012E800000161352D3601E32E802D500001666F17
:1012F8000001666701D010D0000165C02DF02E6A8C
:101308002F6A000164352D3601E32E802D5000012F
:101318006B6F00016B670AD0000E0001606F000E52
:101328000001616F000E0001626F80D000016B51F7
:101338007B0F0001662762C06BF000016551000158
:101348006B1B800E00016B170001618F0001648F19
:10135800FF0E00016317FF0E00016417000E000165
:101368006517000E0001676F000E0001686F000E20
:101378000001696F070E00016A6F000160A10CD0BF
:1013880000016351000167270001645100016823CF
:1013980000016551000169230001D8900001623302
:1013A80000016133000160330001D8900001633708
:1013B800000164370001653700016A2FDED7090E86
:1013C80000016A6F000160A10CD0000163510001A7
:1013D800672700016451000168230001655100017D
:1013E80069230001D89000016233000161330001D4
:1013F80060330001D89000016933000168330001AF
:10140800673300016A2FDED767C019F068C01AF089
:1014180069C01BF066C01CF06BC01DF054EC0DF0E9
:1014280019C060F01AC061F01BC062F01200000120
:1014380075C077F00001786B796B00017435000195
:10144800773701E37881000177510001816F00014E
:10145800816701D059D0170E0001776F000173C062
:1014680078F0000174C079F0000175C07AF00001CD
:10147800772900017B6F05D00001D8907A33793342
:10148800783300017B2FF8D70001785100017C6F79
:101498000001748FFF0E00017317FF0E000174170F
:1014A800000E000175170001735100017D6F0001E6
:1014B800745100017E6F0001755100017F6F0001BA
:1014C800806B8E0E0001815F000181AF19D0000191
:1014D8008151800A0001776FF10E800A0001775D63
:1014E800D8A012D00001D8900001803300017F33CA
:1014F80000017E3300017D330001813FF3D720D006
:10150800170E0001816519D0000E0001736F000EDF
:101518000001746F000E0001756F000E0001766FF8
:101528002AD00001D89000017D3700017E370001E4
:101538007F37000180370001810700018167F1D7FB
:1015480000017C51D8B40FD00001801F00017F1F1B
:1015580000017E1F00017D6D000E00017E23000149
:101568007F23000180237DC073F07EC074F07FC0AC
:1015780075F080C076F012008CD06EEC14F0010E7D
:101588001C6E010EEFEC11F07F0E1E6EF80E1D6E34
:1015980072EC10F090D06EEC14F0010E1C6E010E7F
:1015A800EFEC11F07F0E1E6E510E1D6E72EC10F0F6
:1015B80082D06EEC14F0010E1C6E010EEFEC11F0EF
:1015C8007F0E1E6EFA0E1D6E72EC10F074D06EEC6B
:1015D80014F0010E1C6E010EEFEC11F07F0E1E6E62
:1015E800FC0E1D6E72EC10F0C2C0B8F0C3C0B9F0AA
:1015F80072EC0FF07F0E216E700E206E25EC11F04C
:101608000001C24BC32B0001C2510A0AC311D8A45E
:1016180052D0000E0001C36F000E0001C26F4BD004
:101628006EEC14F0010E1C6E010EEFEC11F00101CE
:1016380000012BC1B8F00001B96BFDEC12F0010EEE
:101648001C6E020EEFEC11F0010100012CC1B8F084
:101658000001B96BFDEC12F0FF0E1AEC14F0FF0E4E
:101668000BEC14F001012B5134EC10F001012C515A
:10167800F6EC0FF020D06EEC14F0010E1C6E010E8B
:10168800EFEC11F07F0E1E6EE20E1D6E72EC10F084
:1016980012D001012951010AD8B46FD7030AD8B46E
:1016A8007AD7010AD8B485D7070AD8B490D7010ADF
:1016B800D8B4B6D7E0D71AEC13F0120019C01FF04F
:1016C8001AC020F01BC021F01CC022F0180E05D053
:1016D800D8902232213220321F32E82EF9D71F50FB
:1016E800286E286601D06BD01CC01FF01DC020F0EA
:1016F8001EC021F01FC022F0180E05D0D89022324B
:10170800213220321F32E82EF9D71F50276E276664
:1017180001D055D01B8EFF0E1916FF0E1A16FF0E9C
:101728001B16000E1C161E8EFF0E1C16FF0E1D1615
:10173800FF0E1E16000E1F16000E236E000E246EDE
:10174800000E256E000E266E7F0E285E2750A00F15
:10175800285E200E276ED890233624362536263666
:101768001C50195C1D501A581E501B581F501C58ED
:10177800D8A009D01C50195E1D501A5A1E501B5A69
:101788001F501C5A2380D89019361A361B361C361F
:10179800272EE1D728AE10D02850800A1F6EE10E00
:1017A800800A1F5CD8A00BD0D8902632253224326C
:1017B8002332283EF9D714D01F0E28640FD0000E0C
:1017C800196E000E1A6E000E1B6E000E1C6E10D0E5
:1017D800D890233624362536263628062866F8D7A4
:1017E80023C019F024C01AF025C01BF026C01CF035
:1017F80012001BC01FF0206A216A1A341F3601E349
:1018080020801F50276E276601D059D01EC01FF0B8
:10181800206A216A1D341F3601E320801F50266E7E
:10182800266601D04CD01A8EFF0E1916FF0E1A1616
:10183800000E1B161D8EFF0E1C16FF0E1D16000E29
:101848001E16000E226E000E236E000E246E000E71
:10185800256E7F0E275E2650980F275E180E266E7F
:10186800D89022362336243625361C50195C1D5054
:101878001A581E501B58D8A007D01C50195E1D506E
:101888001A5A1E501B5A2280D89019361A361B36FF
:10189800262EE6D727AE10D02750800A1F6EE90EF5
:1018A800800A1F5CD8A00BD0D8902532243223326E
:1018B8002232273EF9D714D0170E27640FD0000E16
:1018C800196E000E1A6E000E1B6E000E1C6E10D0E4
:1018D800D890223623362436253627062766F8D7A9
:1018E80022C019F023C01AF024C01BF025C01CF038
:1018F80012000600EACF0EF0E1CF0FF0E2CF10F0B1
:10190800D9CF11F0DACF12F0F3CF13F0F4CF14F0EF
:10191800F6CF15F0F7CF16F0F8CF17F0F5CF18F08F
:101928009EAA32D03D50010D0101280EF324D96E34
:101938000101010EF420DA6E29EC14F0DF6E3D503F
:10194800010D0101280EF324D96E0101010EF420C6
:10195800DA6E230EDF6213D0326607D0010E356EC1
:10196800000E376E010E326E0DD03204D8A41CD092
:10197800000E326E010E376E000E356E15D035042E
:10198800D8A412D03D2A10D09EA20ED075EC14F027
:10199800010E046E010E17EC12F07F0E066E410E5A
:1019A800056EAFEC10F09D929E929E9A18C0F5FFBE
:1019B80017C0F8FF16C0F7FF15C0F6FF14C0F4FFF4
:1019C80013C0F3FF12C0DAFF11C0D9FF10C0E2FF45
:1019D8000FC0E1FF0EC0EAFF0DC0E9FF0CC0FBFF1E
:1019E8000BC0FAFF1100000E956E95CF94FF94CFAF
:1019F80093FF93CF92FFC00EF26E000E296E000E79
:101A0800286E340E276EF20EE82EFED7272EFCD74E
:101A1800D388D38AD38C000E926E000E806E948E7B
:101A2800949C000E296E010E286E2950800A800FA2
:101A3800330ED8B4285CD8B00BD01A0E276EF80E27
:101A4800E82EFED7272EFCD700D0284A292AEDD722
:101A5800000E846E000E816E6EEC14F0010E1C6E8A
:101A6800020EEFEC11F07F0E1E6EF10E1D6E72EC81
:101A780010F0A8EC0DF06EEC14F0010E1C6E010EC7
:101A8800EFEC11F07F0E1E6E530E1D6E72EC10F00F
:101A9800070E64EC12F0000E3D6E1AEC13F0120003
:101AA8001C50D8B405D019501A101B10D8A40CD04B
:101AB800000E196E000E1A6E000E1B6E44D01C2A02
:101AC800D8901B321A321932000E19141E6E000EED
:101AD8001A141F6EFE0E1B14206E1E501F102010AD
:101AE800D8B40CD0ECD71C2A010E1926000E1A22E5
:101AF800000E1B22D8901B321A321932000E19140C
:101B08001E6E000E1A141F6EFF0E1B14206E1E5040
:101B18001F102010D8B406D0E6D71C06D890193666
:101B28001A361B361AAEF9D71CA01A9ED8901C324A
:101B38001C501B121D50D8A41B8E19C019F01AC0B6
:101B48001AF01BC01BF01200330E5FEC14F0010EEC
:101B580064EC12F020EEDAF010EE60F0120EDECF38
:101B6800E6FFE82EFCD77F0E246EB70E236E000E1C
:101B7800266E0B0E256E38EC14F0010E64EC12F094
:101B88000001000E246E0001600E236E000E266E0A
:101B9800120E256E38EC14F0020E64EC12F07F0E73
:101BA800246E630E236E000E266E0E0E256E38EC24
:101BB80014F0020E64EC12F07F0E246ED90E236E20
:101BC800000E266E080E256E38EC14F0020E64EC3A
:101BD80012F07F0E246ED90E236E000E266E080EAC
:101BE800256E38EC14F0020E64EC12F01200000EB0
:101BF800246E2250800AF36E800EF35C000ED8B477
:101C0800215CD8B006D0216C221ED8B0222A010E41
:101C1800246E2050800AF36E800EF35C000ED8B458
:101C28001F5CD8B006D01F6C201ED8B0202A010E29
:101C3800241A000E266E000E256E22502110D8B4EC
:101C48001CD0010E236E04D0D89021362236232AC8
:101C580022AEFAD7D8902536263621501F5C22505E
:101C68002058D8A005D021501F5E2250205A258028
:101C7800D89022322132232EEDD72450D8B404D064
:101C8800256C261ED8B0262A25C01FF026C020F0B5
:101C98001200000EF26E000E956E000E966E849283
:101CA800C180C182C184C186ECEC10F06EEC14F0E6
:101CB800010E1C6E010EEFEC11F07F0E1E6EEA0E87
:101CC8001D6E72EC10F0F7EC0CF03E04D8A404D0B2
:101CD8001AEC13F0000E3E6E3704D8A41AD06EEC3E
:101CE80014F0010E1C6E020EEFEC11F07F0E1E6E4A
:101CF800C30E1D6E72EC10F0000E376E4F0EAB1651
:101D0800AC9ACF0E9D16C0EC0AF0330E5FEC14F0BF
:101D1800DCD73604D8A4D9D7000E366E4F0EAB16D2
:101D2800AC9ACF0E9D16D1D7000E226E000E216EF2
:101D38001FD02250010D1BC01FF01CC020F0F35013
:101D48001F26F45020221FC0F6FF20C0F7FFF86AB4
:101D5800070EF76403D00800F55005D0F6CFE9FF69
:101D6800F7CFEAFFEF500009D8A422C021F0222AB9
:101D780022501F6E206A1D501F5C1E502058D8A08C
:101D8800D8D7000E226E15D01BC0F6FF1CC0F7FF77
:101D9800F86A070EF76403D00800F55005D0F6CFAF
:101DA800E9FFF7CFEAFFEF5067EC14F01B4A1C2A53
:101DB800222A2250215CD8A01200E6D7000E1E6EFF
:101DC8001A50800AF36E800EF35C000ED8B4195CCA
:101DD800D8B006D0196C1A1ED8B01A2A010E1E6E79
:101DE8001C50800AF36E800EF35C000ED8B41B5CA6
:101DF800D8B004D01B6C1C1ED8B01C2A1C501B1059
:101E0800D8B418D0010E1D6E04D0D8901B361C36DD
:101E18001D2A1CAEFAD71B50195C1C501A58D8A0A2
:101E280004D01B50195E1C501A5AD8901C321B3211
:101E38001D2EF1D71E50D8B404D0196C1A1ED8B074
:101E48001A2A19C019F01AC01AF012001BAE16D0BF
:101E580019C01FF01AC020F01BC021F01F1E201E41
:101E6800211E1F2A000E20222122000E1F24196E77
:101E7800000E20201A6E800E21201B6E1EAE16D07A
:101E88001CC01FF01DC020F01EC021F01F1E201E08
:101E9800211E1F2A000E20222122000E1F241C6E44
:101EA800000E20201D6E800E21201E6E000E191AB5
:101EB800000E1A1A800E1B1A000E1C1A000E1D1A8C
:101EC800800E1E1A1C50195C1D501A581E501B58A3
:101ED800D8B002D0D89001D0D8801200330E5FEC71
:101EE80014F00101010E0001896F01015A0E000171
:101EF800886F7F0E00018B6FB40E00018A6FB8C027
:101F08008CF0B9C08DF00EEC00F0000E01016F6F7F
:101F1800000E01016E6F12D001015A0E01016E25EB
:101F2800D96E0101010E01016F21DA6EDF504DEC0F
:101F380014F0ACA2FED701016E4B6F2B01015A0EB3
:101F480001016E25D96E0101010E01016F21DA6EC2
:101F5800DF50D8A4E1D74F0EAB16AC9ACF0E9D1622
:101F68001200000E216E000E226E000E236E000E6F
:101F7800246E20501D101E101F10D8B42AD0010E38
:101F8800256E06D0D8901D361E361F362036252AD7
:101F980020AEF8D7D89021362236233624361D5065
:101FA800195C1E501A581F501B5820501C58D8A096
:101FB80009D01D50195E1E501A5A1F501B5A205026
:101FC8001C5A2180D89020321F321E321D32252EF5
:101FD800E1D721C019F022C01AF023C01BF024C099
:101FE8001CF012000001886F000E00018A6F000EBD
:101FF8000001896F000E0001876F000E0001866FD7
:10200800AE0E0001636F230E0001646F410E0001E4
:10201800656F00018851D9EC13F021C060F022C02F
:1020280061F023C062F06FEC09F060C073F061C02A
:1020380074F062C075F01BEC0AF073C082F074C0D3
:1020480083F075C084F076C085F082C089F083C0C3
:102058008AF089C019F08AC01AF0C3EC12F0120095
:102068000001886F000E00018A6F000E0001896F61
:10207800000E0001876F000E0001866FAE0E000192
:10208800636F230E0001646F410E0001656F00014C
:102098008851D9EC13F021C060F022C061F023C050
:1020A80062F06FEC09F060C073F061C074F062C058
:1020B80075F01BEC0AF073C082F074C083F075C031
:1020C80084F076C085F082C089F083C08AF089C028
:1020D80019F08AC01AF0E0EC12F01200000E226E1D
:1020E800000E216E1CD01DC01FF01EC020F0215014
:1020F8001F26225020221FC0F6FF20C0F7FFF86AD3
:10210800070EF76403D00800F55005D0F6CFE9FFB5
:10211800F7CFEAFFEF5036EC13F0214A222A1DC010
:102128001FF01EC020F021501F26225020221FC061
:10213800F6FF20C0F7FFF86A070EF76403D008001F
:10214800F55005D0F6CFE9FFF7CFEAFFEF500009C9
:10215800D8B41200C8D7000E0A6E000E096E1CD043
:1021680005C007F006C008F0095007260A500822E3
:1021780007C0F6FF08C0F7FFF86A070EF76403D038
:102188000800F55005D0F6CFE9FFF7CFEAFFEF508A
:1021980052EC13F0094A0A2A05C007F006C008F0F5
:1021A800095007260A50082207C0F6FF08C0F7FFA3
:1021B800F86A070EF76403D00800F55005D0F6CF8B
:1021C800E9FFF7CFEAFFEF500009D8B41200C8D7EB
:1021D800000E87EC13F01A0E1C6EF80EE82EFED7D0
:1021E8001C2EFCD700D0030EEBEC13F0070E1C6E70
:1021F8007D0EE82EFED71C2EFCD700F0030EEBEC6C
:1022080013F00F0E1C6E480EE82EFED71C2EFCD7BE
:10221800030EEBEC13F0020EEBEC13F0020EEBECFA
:1022280013F0080EEBEC13F0000EEBEC13F00C0EB1
:10223800EBEC13F0000EEBEC13F0060EEBEC13F0E6
:102248001200330E5FEC14F0000E256E000E246EA3
:1022580015D020C022F021C023F02450222625507A
:10226800232222C0F6FF23C0F7FFF86A0800F550C2
:102278004DEC14F0ACA2FED7244A252A20C022F047
:1022880021C023F0245022262550232222C0F6FF05
:1022980023C0F7FFF86A0800F5500009D8A4D9D779
:1022A8004F0EAB16AC9ACF0E9D1612001E6E000E86
:1022B800AC6E000EAB6E1EB0AC881EA202D0AC8C09
:1022C800AB8C1EB4AC8E1EA602D0AB8801D0AB8AF4
:1022D8001EB8AC849E981EBAAB861EAC02D09D8AEE
:1022E80001D09D9A9E9A1EAE02D09D8801D09D98DD
:1022F80019C0AFFF1AC01BF01BC01CF01D6A1C5090
:10230800B06EAC8AAB8E949C948EACB8ACBE01D047
:10231800948C12002D502A102B102C10D8B424D0D5
:10232800010E2E6E06D0D8902A362B362C362D3636
:102338002E2A2DAEF8D72A50265C2B5027582C5021
:1023480028582D502958D8A008D02A50265E2B503E
:10235800275A2C50285A2D50295AD8902D322C32D1
:102368002B322A322E2EE7D726C026F027C027F098
:1023780028C028F029C029F012008E0E296E06D038
:10238800D8902432233222322132292A000E2114F5
:10239800256E000E2214266E000E2314276EFF0EE3
:1023A8002414286E2850251026102710D8A4E8D702
:1023B80021C019F022C01AF023C01BF029C01CF05C
:1023C800000E1D6E54EC0DF019C021F01AC022F059
:1023D8001BC023F012001D6E1D04D8A410D01C5081
:1023E8007F0F206E20380F0B1E6E20500F0B1F6EB4
:1023F8001E50EBEC13F01F50EBEC13F013D01D50F4
:10240800020AD8A40FD01C50BF0F206E20380F0B23
:102418001E6E20500F0B1F6E1E50EBEC13F01F505A
:10242800EBEC13F01200056E0504D8A410D004508C
:102438007F0F086E08380F0B066E08500F0B076EDB
:102448000650FBEC13F00750FBEC13F013D00550CB
:10245800020AD8A40FD00450BF0F086E08380F0B1B
:10246800066E08500F0B076E0650FBEC13F0075072
:10247800FBEC13F0120001EE00F05A0EEE6AE806CB
:10248800FDE100EEBAF0200EEE6AE806FDE100EE8E
:1024980030F0180EEE6AE806FDE1860EF66E280E9C
:1024A800F76E000EF86E00EEDAF010EE14F0090088
:1024B800F5CFEEFFE550E150FAE100014DEF0EF0E7
:1024C8001E6E000E1F6E000E1F6E19D0000E1A6EC3
:1024D800FA0E196E6EEC13F0000E1A6EFA0E196EE3
:1024E8006EEC13F0000E1A6EFA0E196E6EEC13F005
:1024F800000E1A6EFA0E196E6EEC13F01F2A1F509A
:102508001E5CD8A01200E2D7000E0001851B000E49
:102518000001861B800E0001871B82C076F083C0F5
:1025280077F084C078F085C079F086C07AF087C0EB
:102538007BF02FEC08F076C082F077C083F078C08B
:1025480084F012001A6E0C0EBA6E050EF66E000EAE
:10255800F76E300EF86E0800F5CF19F019A002D00A
:102568001B6802D0000E1B6E1B50D8B402D0949288
:1025780001D09396CA941AC0CBFFCA84120019C01E
:102588001BF01AC01CF0060ED8901B361C36E82E1D
:10259800FBD71BC01DF01CC01EF01EC0BBFF1DC01A
:1025A8001BF0D8901B32D8901B32300E1B16BA5035
:1025B800CF0B1B10BA6E120019C01BF01AC01CF00A
:1025C800060ED8901B361C36E82EFBD71BC01DF014
:1025D8001CC01EF01EC0BEFF1DC01BF0D8901B32D1
:1025E800D8901B32300E1B16BD50CF0B1B10BD6E82
:1025F80012000101010E0001896F01015A0E00014C
:10260800886F7F0E00018B6FAA0E00018A6FB8C019
:102618008CF0B9C08DF00EEC00F00101010E1E6EB9
:1026280001015A0E1D6E72EC10F01200000E1A6EA7
:10263800000E196E1A50800A800F140ED8B4195C57
:10264800D8B00FD00101280E1924D96E0101010E4E
:102658001A20DA6E000EDF6E000E3D6E194A1A2A35
:10266800E9D712001C6E1C500F0B1A6E1C50F00B91
:102678001B6E84801B380F0B87EC13F084840D0EBF
:10268800E82EFED700F084941A5087EC13F0848467
:102698000D0EE82EFED700F084941200046E04504C
:1026A8000F0B026E0450F00B036E848003380F0B7F
:1026B8009DEC13F084840D0EE82EFED700F0849470
:1026C80002509DEC13F084840D0EE82EFED700F026
:1026D80084941200000E1D6E000E1C6E000E1D6EFE
:1026E800000E1C6E09D0030E1B6E980EE82EFED746
:1026F8001B2EFCD71C4A1D2A1C50195C1D501A5849
:10270800D8A01200F0D7196E19A002D0838801D082
:10271800839819A202D0838A01D0839A19A402D07F
:10272800838C01D0839C19A602D0838E01D0839E0E
:102738001200016E01A002D0838801D0839801A203
:1027480002D0838A01D0839A01A402D0838C01D05D
:10275800839C01A602D0838E01D0839E120027504D
:102768002902F3CF2BF0F4CF2CF027502A02F35094
:102778002C2628502902F3502C262BC027F02CC0D9
:1027880028F012007F0E1B141A101910D8B406D0A6
:10279800000E191A000E1A1A800E1B1A19C019F009
:1027A8001AC01AF01BC01BF01200246E2450196EB8
:1027B8001A6A1B6A8E0E1C6E000E1D6E54EC0DF00C
:1027C80019C021F01AC022F01BC023F012001B6EA2
:1027D80084901B5087EC13F08484060E1A6E300E1A
:1027E800E82EFED71A2EFCD700D084941200036E70
:1027F800849003509DEC13F08484060E026E300E14
:10280800E82EFED7022EFCD700D0849412001C6E4E
:10281800FE0E476E4750FB0BCA6E000ECC6E9E92A2
:102828009D92CA841C50A6EC12F012001A6EFE0E7D
:10283800476E4750FB0BCA6E000ECC6E9E929D925F
:10284800CA841A5056EC14F01200F20E3C16ABACC7
:1028580003D03C90ABB03C80ABB43C84ABB23C867C
:10286800AECF01F00150120024C01CF023C01BF0B1
:1028780025C01DF026C01EF098EC0EF01200415441
:102888002B4E414D453D726F626F740D0A0000007A
:102898000100196EACAC03D0AC903CB2AC8019C04E
:1028A800ADFF1200196E0C0EBD129494CA9419C093
:1028B800CBFFCA8412001F6E1FC019F01A6A7C0E63
:1028C8005AEC11F012001A6E1A504DEC14F0ACB21A
:1028D8001200FDD7000EEBEC13F0010EEBEC13F039
:1028E8001200000EFBEC13F0010EFBEC13F01200CB
:107ECA0000010000000A00000064000000E803004E
:107EDA000010270000A086010040420F00809698FB
:107EEA000000E1F50500CA9A3B00803FCDCC3DD7A2
:107EFA00233C12833AB7D138C62737388635C0D6DD
:107F0A0033CC2B32708930E7DB2EE53C1E42A20DC2
:107F1A0000803F00204100C842007A44401C46507D
:107F2A00C34724744997184BBCBE4C6B6E4E03155D
:107F3A005079AD60F34971496E74657272757074E7
:107F4A00696F6E20544D523200425420494E4943C3
:107F5A0049414C495A41444F0041542B50535744CC
:107F6A003D303030300D0A000A2B425453544154EC
:107F7A00453A310D0A000A2B425453544154453AAA
:107F8A00330D0A000A2B425453544154453A340DD6
:107F9A000A000A434F4E4E4543543A4F4B0D0A00CE
:107FAA00496E7465676572203D2025640041542B33
:107FBA00524F4C453D300D0A00434D442054414236
:107FCA004C455400466C6F6174203D202566004183
:107FDA00542B494E510D0A0044656661756C740054
:107FEA00496E6963696F00494E4943494F00310040
:067FFA003300340000001A
:020000040020DA
:08000000FFFFFFFFFFFFFFFF00
:020000040030CA
:0E0000002008191EFF8181FF0FC00FE00F4086
:00000001FF
