:040000000CEF00F011
:10000800FACF34F0FBCF35F0E9CF36F00FED0CF036
:1000180068EF17F00001000E0001BC6F0001A30E8D
:100028000001BB6FB4EF04F00001CE51250AD8B42B
:100038000CD09FC0D9FFA0C0DAFF0001CEC0DFFFFF
:1000480000019F4BA02BB4EF04F0000E0001BE6F1F
:10005800000E0001BD6F03D00001BE851ED0000157
:10006800A1C0F6FF0001A2C0F7FF0001A14BA22B1F
:10007800F86A08000001F5CFCEF00001CE51000A61
:10008800D8B4C6EF04F0640AD8B407D0020AD8B4CA
:10009800E3D70F0AD8A4B4EF04F0070E0001BE1589
:1000A800D8B46DD3000E0001C36F060E0001C26FF5
:1000B800BBC0D9FFBCC0DAFF0001DECFCBF0000126
:1000C800DECFCCF00001DDCFCDF0030E0001BB2761
:1000D800000E0001BC230001CD51800A800F07E10A
:1000E800000E0001CC5D03E1000E0001CB5DD8B02D
:1000F80011D0CBC060F0CCC061F0CDC062F0A8ECEC
:1001080019F060C0CBF061C0CCF062C0CDF0030E36
:100118000001BD13000E0001CA6F000E0001C96F77
:100128007F0E0001CD150001CC110001CB11D8B410
:10013800AAD0820E0001A66FFF0EA76F0001CBC0E8
:10014800A8F00001CCC0A9F00001CDC0AAF00001C0
:10015800CEC0ABF0100E06D00001D890AB33AA3356
:10016800A933A833E82EF8D70001A8510001A62525
:100178000001C96F000E0001A7210001CA6F00012C
:10018800C907D8A0CA07C9C06EF0CAC06FF0000E70
:100198000001716F030E0001706F59EC19F0000136
:1001A8006EC0C9F000016FC0CAF0C9C066F0CAC00D
:1001B80067F0000E0001696F0A0E0001686F44ECD9
:1001C80010F0000166C0C9F0000167C0CAF0000164
:1001D800CA51800AF36E800EF35C000ED8B4C95D74
:1001E800D8B004D00001C907D8A0CA070001C95176
:1001F8000008CDEC04F083C0BFF084C0C0F085C017
:10020800C1F0BFC074F0C0C075F0C1C076F0CBC0FB
:1002180077F0CCC078F0CDC079F0D0EC0CF074C099
:10022800BFF075C0C0F076C0C1F0BFC060F0C0C0FC
:1002380061F0C1C062F0000E0001636F800E000122
:10024800646F3F0E0001656F1FEC11F0D8B005D048
:100258000001C907D8A0CA0716D0BFC060F0C0C047
:1002680061F0C1C062F0000E0001636F200E000152
:10027800646F410E0001656F1FEC11F0D8A003D028
:100288000001C94BCA2B0001C351800AF36E800ECE
:10029800F35C0D0ED8B4C25DD8B018D0CBC08DF0C9
:1002A800CCC08EF0CDC08FF00001C2518BEC07F0AE
:1002B80083C090F084C091F085C092F015EC09F0ED
:1002C8008DC0CBF08EC0CCF08FC0CDF00001CA51EC
:1002D800800AF36E800EF35C0A0ED8B4C95DD8B0FC
:1002E80029D07F0E0001CD150001CC110001CB11E2
:1002F800D8B46FD0CBC08AF0CCC08BF0CDC08CF016
:1003080030EC0EF08AC0A6F08BC0A7F08CC0A8F025
:100318008DC0A9F00001A951A611A711A811D8A450
:1003280058D00001CA51800A800F020ED8B4C95DA6
:10033800D8A04FD0BFC060F0C0C061F0C1C062F0AB
:10034800700E0001636F890E0001646F400E00019A
:10035800656F1FEC11F0D8B003D00001F70E02D082
:100368000001F80E0001C927FF0E0001CA23000191
:10037800C951CDEC04F083C0BFF084C0C0F085C083
:10038800C1F0CBC060F0CCC061F0CDC062F0BFC09E
:1003980063F0C0C064F0C1C065F044EC0BF060C00D
:1003A800AFF061C0B0F062C0B1F063C0B2F0AFC0EE
:1003B800C4F0B0C0C5F0B1C0C6F0B2C0C7F0000EFE
:1003C8000001CB6F000E0001CC6F000E0001CD6F55
:1003D80034D0CBC08AF0CCC08BF0CDC08CF030ECE0
:1003E8000EF08AC0C4F08BC0C5F08CC0C6F08DC0BA
:1003F800C7F0CBC099F0CCC09AF0CDC09BF0C4C078
:1004080068F0C5C069F0C6C06AF0C7C06BF08FEC71
:1004180015F068C09CF069C09DF06AC09EF0E5ECDC
:1004280018F099C0CBF09AC0CCF09BC0CDF0000E6C
:100438000001CA6F000E0001C96F010E0001CE6FE6
:100448000001CE510A0AD8B421D00001CE51040DC2
:100458009D0EF324F66E7E0EF420F76EF86A000EF9
:10046800F8220900F5500001C45D0900F5500001AB
:10047800C5590900F5500001C6590900F550000199
:10048800C759D8A003D00001CE2BDAD7030E00013C
:10049800BD150001A66F000E0001BE150001A76F73
:1004A8000001A751A611D8B45DD09FC0D9FFA0C044
:1004B800DAFF2D0E53D0C4C060F0C5C061F0C6C0CD
:1004C80062F0C7C063F00001CE51040D9D0EF32405
:1004D800F66E7E0EF420F76EF86A000EF822090018
:1004E8000001F5CF64F009000001F5CF65F00900BF
:1004F8000001F5CF66F00A000001F5CF67F0B5EC12
:1005080010F060C0B3F061C0B4F062C0B5F063C071
:10051800B6F0B3C06DF0B4C06EF0B5C06FF0B6C041
:1005280070F00A0E0001716F000E0001726F000E6C
:100538000001736F000E0001746F2AEC14F06DC097
:10054800B3F06EC0B4F06FC0B5F070C0B6F0000183
:10055800B351300F9FC0D9FFA0C0DAFFDF6E000192
:100568009F4BA02B0001CE070001CE29D8B40ED096
:10057800A2D79FC0D9FFA0C0DAFF300EDF6E0001FE
:100588009F4BA02B0001C907D8A0CA070001CA5178
:10059800800AF36E800EF35C010ED8B4C95DD8B042
:1005A800E8D70001C351800A800F090ED8B4C25D94
:1005B800D8A004D0080E0001CE6F02D0C2C0CEF081
:1005C8000001CE510001C25F000E0001CEBFFF0E38
:1005D8000001C35B0001CE51D8B409D09FC0D9FF38
:1005E800A0C0DAFF2E0EDF6E00019F4BA02B00018A
:1005F800CE51CDEC04F083C0ACF084C0ADF085C022
:10060800AEF0CBC077F0CCC078F0CDC079F0ACC0FC
:1006180074F0ADC075F0AEC076F0D0EC0CF074C0DC
:100628008AF075C08BF076C08CF030EC0EF08AC082
:10063800C4F08BC0C5F08CC0C6F08DC0C7F085D0A3
:10064800C4C060F0C5C061F0C6C062F0C7C063F046
:100658000001CE51040D9D0EF324F66E7E0EF4209B
:10066800F76EF86A000EF82209000001F5CF64F071
:1006780009000001F5CF65F009000001F5CF66F02B
:100688000A000001F5CF67F0B5EC10F060C0B7F0D4
:1006980061C0B8F062C0B9F063C0BAF0B7C06DF01D
:1006A800B8C06EF0B9C06FF0BAC070F00A0E0001A1
:1006B800716F000E0001726F000E0001736F000E63
:1006C8000001746F2AEC14F06DC0B7F06EC0B8F07A
:1006D8006FC0B9F070C0BAF00001B751300F9FC0B9
:1006E800D9FFA0C0DAFFDF6E00019F4BA02BC4C06A
:1006F8006DF0C5C06EF0C6C06FF0C7C070F00001E5
:10070800CE51040D9D0EF324F66E7E0EF420F76E86
:10071800F86A000EF82209000001F5CF71F009000F
:100728000001F5CF72F009000001F5CF73F00A005F
:100738000001F5CF74F02AEC14F06DC0C4F06EC05F
:10074800C5F06FC0C6F070C0C7F00001CE07000149
:10075800CE29D8B40ED074D79FC0D9FFA0C0DAFF75
:10076800300EDF6E00019F4BA02B0001C207D8A0FE
:10077800C3070001C351C211D8B4F2D0EDD7BBC032
:10078800D9FFBCC0DAFF0001DECFC4F00001DDCF25
:10079800C5F00001000E0001C5BFFF0E0001C66FC5
:1007A8000001C76F020E0001BB27000E0001BC2329
:1007B8000001C751800A800F0BE1000E0001C65DE1
:1007C80007E1000E0001C55D03E1000E0001C45DF4
:1007D800D8B012D0030E0001BD130001C71F0001DD
:1007E800C61F0001C51F0001C46D000E0001C5230E
:1007F8000001C6230001C723010E0001CE6F0001CE
:10080800CE510A0AD8B421D00001CE51040D9D0E54
:10081800F324F66E7E0EF420F76EF86A000EF822C6
:100828000900F5500001C45D0900F5500001C559E3
:100838000900F5500001C6590900F5500001C759D3
:10084800D8A003D00001CE2BDAD7030E0001BD15C6
:100858000001A66F000E0001BE150001A76F000180
:10086800A751A611D8B409D09FC0D9FFA0C0DAFFFC
:100878002D0EDF6E00019F4BA02B0001CE51000111
:10088800C26F0001C36B0001C2BFC3075FD0000184
:10089800C2C0A6F00001C3C0A7F00001D890A637D7
:1008A800A7370001D890A637A7379D0E0001A625C7
:1008B800F66E7E0EA721F76EF86A000EF822090080
:1008C8000001F5CF64F009000001F5CF65F00900DB
:1008D8000001F5CF66F00A000001F5CF67F0C4C04B
:1008E80060F0C5C061F0C6C062F0C7C063F0B5EC87
:1008F80010F060C06DF061C06EF062C06FF063C050
:1009080070F00A0E0001716F000E0001726F000E88
:100918000001736F000E0001746F2AEC14F06DC0B3
:10092800A8F06EC0A9F06FC0AAF070C0ABF00001CB
:10093800A851300F0001CE6F9FC0D9FFA0C0DAFFC9
:100948000001CEC0DFFF00019F4BA02B0001C207B2
:10095800D8A0C3070001C229D8B4C329D8A497D7FF
:100968000001A1C0F6FF0001A2C0F7FF0001A14BE2
:10097800A22BF86A08000001F5CFCEF00001CE677F
:1009880018EF00F09FC0D9FFA0C0DAFF000EDF6E9D
:1009980012000001896F000189AF52D10001896DF1
:1009A80000018951800A120FD8A0C9D0000E000199
:1009B800716F030E0001706F000E0001696F0A0E5F
:1009C8000001686F000E0001636F640E0001626F22
:1009D800000189510001606F0001616B000160BF77
:1009E8006107BDEC12F0000160C066F0000161C053
:1009F80067F044EC10F0090E0001662500016E6FE7
:100A0800000E0001672100016F6F59EC19F0C50E47
:100A180000016E25F66E7E0E00016F21F76EF86AF2
:100A2800000EF82209000001F5CF77F00900000157
:100A3800F5CF78F00A000001F5CF79F0000E00013B
:100A4800696F640E0001686F000189510001666FCB
:100A58000001676B000166BF670744EC10F0120ED7
:100A68000001662500016E6F000E0001672100017C
:100A78006F6F000E0001716F030E0001706F59EC6B
:100A880019F0C50E00016E25F66E7E0E00016F216D
:100A9800F76EF86A000EF82209000001F5CF74F02D
:100AA80009000001F5CF75F00A000001F5CF76F0D6
:100AB800D0EC0CF074C086F075C087F076C088F072
:100AC80086C074F087C075F088C076F0000E00010B
:100AD800716F030E0001706F000E0001636F0A0E44
:100AE8000001626F000189510001606F0001616BB4
:100AF800000160BF6107BDEC12F0000160C06EF03C
:100B0800000161C06FF059EC19F0C50E00016E25A7
:100B1800F66E7E0E00016F21F76EF86A000EF8225D
:100B280009000001F5CF77F009000001F5CF78F052
:100B38000A000001F5CF79F0D0EC0CF0C8D1000123
:100B48008951800A750FD8A073D0000E0001696F13
:100B58000A0E0001686F000189510001666F0001EB
:100B6800676B000166BF670744EC10F0090E0001CF
:100B7800662500016E6F000E0001672100016F6F8E
:100B8800000E0001716F030E0001706F59EC19F02F
:100B9800C50E00016E25F66E7E0E00016F21F76E00
:100BA800F86A000EF82209000001F5CF74F0090078
:100BB8000001F5CF75F00A000001F5CF76F0000EC0
:100BC8000001716F030E0001706F000E0001636F6A
:100BD8000A0E0001626F000189510001606F000177
:100BE800616B000160BF6107BDEC12F0000160C0DD
:100BF8006EF0000161C06FF059EC19F0C50E0001EC
:100C08006E25F66E7E0E00016F21F76EF86A000EF3
:100C1800F82209000001F5CF77F009000001F5CFAF
:100C280078F00A000001F5CF79F0D0EC0CF04FD144
:100C380000018951030DC50EF324F66E7E0E55D1C1
:100C480000018951800A120FD8A0C9D0000E0001F6
:100C5800716F030E0001706F000E0001696F0A0EBC
:100C68000001686F000E0001636F640E0001626F7F
:100C7800000189510001606F0001616B000160BFD4
:100C88006107BDEC12F0000160C066F0000161C0B0
:100C980067F044EC10F0090E0001662500016E6F44
:100CA800000E0001672100016F6F59EC19F0EC0E7E
:100CB80000016E25F66E7E0E00016F21F76EF86A50
:100CC800000EF82209000001F5CF77F009000001B5
:100CD800F5CF78F00A000001F5CF79F0000E000199
:100CE800696F640E0001686F000189510001666F29
:100CF8000001676B000166BF670744EC10F0120E35
:100D08000001662500016E6F000E000167210001D9
:100D18006F6F000E0001716F030E0001706F59ECC8
:100D280019F0EC0E00016E25F66E7E0E00016F21A3
:100D3800F76EF86A000EF82209000001F5CF74F08A
:100D480009000001F5CF75F00A000001F5CF76F033
:100D5800D0EC0CF074C086F075C087F076C088F0CF
:100D680086C074F087C075F088C076F0000E000168
:100D7800716F030E0001706F000E0001636F0A0EA1
:100D88000001626F000189510001606F0001616B11
:100D9800000160BF6107BDEC12F0000160C06EF099
:100DA800000161C06FF059EC19F0EC0E00016E25DE
:100DB800F66E7E0E00016F21F76EF86A000EF822BB
:100DC80009000001F5CF77F009000001F5CF78F0B0
:100DD8000A000001F5CF79F0D0EC0CF078D00001D2
:100DE8008951800A750FD8A079D0000E0001696F6B
:100DF8000A0E0001686F000189510001666F000149
:100E0800676B000166BF670744EC10F0090E00012C
:100E1800662500016E6F000E0001672100016F6FEB
:100E2800000E0001716F030E0001706F59EC19F08C
:100E3800EC0E00016E25F66E7E0E00016F21F76E36
:100E4800F86A000EF82209000001F5CF74F00900D5
:100E58000001F5CF75F00A000001F5CF76F0000E1D
:100E68000001716F030E0001706F000E0001636FC7
:100E78000A0E0001626F000189510001606F0001D4
:100E8800616B000160BF6107BDEC12F0000160C03A
:100E98006EF0000161C06FF059EC19F0EC0E000122
:100EA8006E25F66E7E0E00016F21F76EF86A000E51
:100EB800F82209000001F5CF77F009000001F5CF0D
:100EC80078F00A000001F5CF79F0D0EC0CF074C08E
:100ED80083F075C084F076C085F018D00001895180
:100EE800030DEC0EF324F66E7E0EF420F76EF86A0E
:100EF800000EF82209000001F5CF83F00900000177
:100F0800F5CF84F00A000001F5CF85F0120000014A
:100F18008C6F6D0E00018C65D4D0000E0001716FCE
:100F2800030E0001706F000E0001696F0A0E0001C8
:100F3800686F000E0001636F640E0001626F0001AC
:100F48008CC060F00001616BBDEC12F0000160C064
:100F580066F0000161C067F044EC10F0090E000172
:100F6800662500016E6F000E0001672100016F6F9A
:100F780059EC19F0C50E00016E25F66E7E0E0001C3
:100F88006F21F76EF86A000EF82209000001F5CF0C
:100F980077F009000001F5CF78F00A000001F5CFDD
:100FA80079F0000E0001696F640E0001686F00019E
:100FB8008CC066F00001676B44EC10F0120E000163
:100FC800662500016E6F000E0001672100016F6F3A
:100FD800000E0001716F030E0001706F59EC19F0DB
:100FE800C50E00016E25F66E7E0E00016F21F76EAC
:100FF800F86A000EF82209000001F5CF74F0090024
:101008000001F5CF75F00A000001F5CF76F0D0ECBD
:101018000CF074C089F075C08AF076C08BF0000EB1
:101028000001716F030E0001706F000E0001636F05
:101038000A0E0001626F00018CC060F00001616B54
:10104800BDEC12F0000160C06EF0000161C06FF0ED
:1010580059EC19F0C50E00016E25F66E7E0E0001E2
:101068006F21F76EF86A000EF82209000001F5CF2B
:1010780077F009000001F5CF78F00A000001F5CFFC
:1010880079F089C074F08AC075F08BC076F0D0EC26
:101098000CF074C086F075C087F076C088F086C002
:1010A80074F087C075F088C076F0000E0001776F85
:1010B800000E0001786F3F0E0001796FD0EC0CF044
:1010C800A9D00A0E00018C6582D0000E0001716F54
:1010D800030E0001706F000E0001636F0A0E00011D
:1010E800626F00018CC060F00001616BBDEC12F012
:1010F800000160C06EF0000161C06FF059EC19F09A
:10110800C50E00016E25F66E7E0E00016F21F76E8A
:10111800F86A000EF82209000001F5CF77F00900FF
:101128000001F5CF78F00A000001F5CF79F0000E44
:101138000001696F0A0E0001686F00018CC066F03B
:101148000001676B44EC10F0090E000166250001F0
:101158006E6F000E0001672100016F6F000E000125
:10116800716F030E0001706F59EC19F0C50E000184
:101178006E25F66E7E0E00016F21F76EF86A000E7E
:10118800F82209000001F5CF74F009000001F5CF3D
:1011980075F00A000001F5CF76F0D0EC0CF074C0C1
:1011A80089F075C08AF076C08BF089C074F08AC067
:1011B80075F08BC076F0000E0001776F000E00010D
:1011C800786F3F0E0001796FD0EC0CF023D000014E
:1011D8008C51030DC50EF324F66E7E0EF420F76EC7
:1011E800F86A000EF82209000001F5CF74F0090032
:1011F8000001F5CF75F00A000001F5CF76F0000E7A
:101208000001776F000E0001786F3F0E0001796FC3
:10121800D0EC0CF074C083F075C084F076C085F013
:10122800120000018FC093F00001946B956B0001D0
:101238008E350001933701E3948100019351000139
:10124800986F000192C093F00001946B956B0001B8
:1012580091350001933701E3948100019351000116
:10126800976F00019851D8B412D00001975100012E
:10127800985DD8B013D00001985100080001972557
:101288000001936F190E0001935DD8A007D090C09C
:101298008DF091C08EF092C08FF002D1000197516D
:1012A800D8B412D0000198510001975DD8B013D07E
:1012B800000197510008000198250001936F190E4D
:1012C8000001935DD8A007D08DC08DF08EC08EF040
:1012D8008FC08FF0E5D0060E0001966F00018FAF2A
:1012E80002D00001968F000192AF02D00001968DC6
:1012F80000018E8FFF0E00018D17FF0E00018E1763
:10130800000E00018F170001918FFF0E000190174A
:10131800FF0E00019117000E00019217000197516E
:101328000001985DD8B02AD00001D890000190370C
:10133800000191370001923700019707000197518A
:1013480000019819D8B414D00001960796C093F0FC
:10135800070E00019317D8B40BD0E6D70001D89038
:1013680000018F3300018E3300018D330001982B6B
:101378000001975100019863F1D72FD000019851CF
:101388000001975DD8B029D00001D89000018D37B1
:1013980000018E3700018F3700019807000197512F
:1013A80000019819D8B414D00001960796C093F09C
:1013B800070E00019317D8B40BD0E6D70001D890D8
:1013C8000001923300019133000190330001972B03
:1013D8000001975100019863F1D7000196AF12D030
:1013E800FF0E00018D1BFF0E00018E1BFF0E00017A
:1013F8008F1B010E00018D27000E00018E23000EA9
:1014080000018F23000196AD12D0FF0E0001901B42
:10141800FF0E0001911BFF0E0001921B010E00013F
:101428009027000E00019123000E00019223000E68
:101438000001966F00018D510001902700018E5127
:101448000001912300018F5100019223000192AF06
:1014580015D0FF0E0001901BFF0E0001911BFF0E1F
:101468000001921B010E00019027000E000191233C
:10147800000E00019223010E0001966F90C060F0EB
:1014880091C061F092C062F098C063F096C064F0B9
:10149800D5EC0EF060C08DF061C08EF062C08FF0A8
:1014A8001200000160C066F0000161C067F0000131
:1014B80062C068F0000163C069F0180E06D0000130
:1014C800D8906933683367336633E82EF8D700015C
:1014D800665100016F6F00016F6701D0ACD0000149
:1014E80063C066F0000164C067F0000165C068F081
:1014F800000166C069F0180E06D00001D890693363
:10150800683367336633E82EF8D700016651000167
:101518006E6F00016E6701D08ED00001628FFF0EE2
:1015280000016017FF0E00016117FF0E000162172E
:10153800000E000163170001658FFF0E000163179D
:10154800FF0E00016417FF0E00016517000E000171
:101558006617000E00016A6F000E00016B6F000E27
:1015680000016C6F000E00016D6F7F0E00016F5F50
:1015780000016E51A00F00016F5F200E00016E6F19
:101588000001D89000016A3700016B3700016C3701
:1015980000016D37000163510001605D0001645175
:1015A800000161590001655100016259000166514D
:1015B80000016359D8A012D0000163510001605F97
:1015C800000164510001615B000165510001625B2B
:1015D800000166510001635B00016A810001D89037
:1015E800000160370001613700016237000163378D
:1015F80000016E2FC5D700016FAF19D000016F51E0
:10160800800A0001666FE10E800A0001665DD8A0BD
:1016180012D00001D89000016D3300016C33000135
:101628006B3300016A3300016F3FF3D720D01F0EE0
:1016380000016F6519D0000E0001606F000E0001F7
:10164800616F000E0001626F000E0001636F17D01A
:101658000001D89000016A3700016B3700016C3730
:1016680000016D3700016F0700016F67F1D76AC08D
:1016780060F06BC061F06CC062F06DC063F0120086
:10168800000162C066F00001676B686B000161359C
:101698000001663701E367810001665100016E6F42
:1016A80000016E6701D092D0000165C066F00001AC
:1016B800676B686B000164350001663701E3678179
:1016C8000001665100016D6F00016D6701D07ED089
:1016D8000001618FFF0E00016017FF0E0001611706
:1016E800000E000162170001648FFF0E00016317EE
:1016F800FF0E00016417000E00016517000E0001BF
:10170800696F000E00016A6F000E00016B6F000E1A
:1017180000016C6F7F0E00016E5F00016D51980F24
:1017280000016E5F180E00016D6F0001D890000176
:10173800693700016A3700016B3700016C37000117
:1017480063510001605D00016451000161590001AD
:10175800655100016259D8A00ED000016351000103
:10176800605F000164510001615B00016551000187
:10177800625B000169810001D890000160370001B7
:1017880061370001623700016D2FCFD700016EAFBE
:1017980019D000016E51800A0001666FE90E800AB7
:1017A8000001665DD8A012D00001D89000016C330A
:1017B80000016B3300016A330001693300016E3F99
:1017C800F3D720D0170E00016E6519D0000E000166
:1017D800606F000E0001616F000E0001626F000E65
:1017E8000001636F17D00001D8900001693700012C
:1017F8006A3700016B3700016C3700016E07000182
:101808006E67F1D769C060F06AC061F06BC062F0C2
:101818006CC063F012000600EACF37F0E1CF38F071
:10182800E2CF39F0D9CF3AF0DACF3BF0F3CF3CF042
:10183800F4CF3DF0F6CF3EF0F7CF3FF0F8CF40F0D1
:10184800F5CF41F09EAA34D05550010D0101280E64
:10185800F324D96E0101010EF420DA6E32EC1AF08D
:10186800DF6E5550010D0101280EF324D96E0101D8
:10187800010EF420DA6E230EDF6215D04C6608D014
:10188800010E4F6E000E0001EC6F010E4C6E0ED073
:101898004C04D8A45FD0000E4C6E010E0001EC6F12
:1018A800000E4F6E57D04F04D8A454D0552A52D0AA
:1018B800F2A214D093EC1AF0010E046E010ECCECD7
:1018C80017F07F0E066E250E056E4AEC16F0640EB4
:1018D80033EC17F0000EFEEC16F03CD0F0A014D05C
:1018E80093EC1AF0010E046E010ECCEC17F07F0E8B
:1018F800066E360E056E4AEC16F0000E33EC17F045
:10190800640EFEEC16F026D0F0A214D093EC1AF078
:10191800010E046E010ECCEC17F07F0E066E470E1A
:10192800056E4AEC16F0640E33EC17F0640EFEEC0C
:1019380016F010D09EA20ED093EC1AF0010E046E91
:10194800010ECCEC17F07F0E066E130E056E4AECF6
:1019580016F09D92F092F090F2929E929E9A41C05B
:10196800F5FF40C0F8FF3FC0F7FF3EC0F6FF3DC09F
:10197800F4FF3CC0F3FF3BC0DAFF3AC0D9FF39C0DF
:10198800E2FF38C0E1FF37C0EAFF36C0E9FF35C0E3
:10199800FBFF34C0FAFF1100000176C07AF00001A5
:1019A8007B6B7C6B0001753500017A3701E37B8125
:1019B80000017A5100017D6F00017D6701D013D0CD
:1019C800000179C07AF000017B6B7C6B00017835EF
:1019D80000017A3701E37B8100017A510001826FAF
:1019E800000182670AD0000E0001746F000E00012A
:1019F800756F000E0001766F80D0000182517B0F59
:101A080000017D2776C082F0000179510001821B18
:101A1800800E000182170001758F0001788FFF0E7C
:101A280000017717FF0E00017817000E00017917E3
:101A3800000E00017E6F000E00017F6F000E000196
:101A4800806F070E0001816F000174A10CD00001A6
:101A5800775100017E270001785100017F230001A2
:101A68007951000180230001D890000176330001EC
:101A78007533000174330001D890000177370001F5
:101A88007837000179370001812FDED7090E000170
:101A9800816F000174A10CD00001775100017E27ED
:101AA8000001785100017F23000179510001802352
:101AB8000001D890000176330001753300017433BA
:101AC8000001D8900001803300017F3300017E338C
:101AD8000001812FDED77EC060F07FC061F080C03A
:101AE80062F07DC063F082C064F0D5EC0EF060C097
:101AF80074F061C075F062C076F01200000E00014B
:101B0800E86F000E0001E76F92D08CEC1AF0010E1E
:101B18000001636F010EC3EC16F07F0E0001656FC4
:101B2800450E0001646F7CEC14F093D08CEC1AF035
:101B3800010E0001636F010EC3EC16F07F0E000169
:101B4800656F560E0001646F7CEC14F082D08CEC4B
:101B58001AF0010E0001636F010EC3EC16F07F0E40
:101B68000001656FFD0E0001646F7CEC14F071D00C
:101B780080725AEC12F0000160C0E7F0000161C009
:101B8800E8F08CEC1AF0010E0001636F010EC3EC53
:101B980016F0E7C0CFF0E8C0D0F0C6EC18F0E7C008
:101BA800CFF0E8C0D0F00CEC15F07F0E0001686FA4
:101BB800750E0001676FC8EC14F04BD080708CEC88
:101BC8001AF0010E0001636F010EC3EC16F001015B
:101BD80000012BC1CFF00001D06BC6EC18F0010E4C
:101BE8000001636F020EC3EC16F0010100012CC165
:101BF800CFF00001D06BC6EC18F001012B510CECB2
:101C080016F001012C51CEEC15F023D08CEC1AF013
:101C1800010E0001636F010EC3EC16F07F0E000188
:101C2800656FE70E0001646F7CEC14F012D00101BF
:101C38002951010AD8B469D7030AD8B477D7010A59
:101C4800D8B485D7070AD8B493D7010AD8B4B6D779
:101C5800DDD7A4EC18F0120000018CC08EF0000152
:101C68008F6B906B00018B3500018E3701E38F81FC
:101C780000018E510001986F0001986701D059D07A
:101C8800170E00018E6F00018AC08FF000018BC013
:101C980090F000018CC091F000018E290001926F34
:101CA80005D00001D890913390338F330001922FE3
:101CB800F8D700018F510001936F00018B8FFF0E41
:101CC80000018A17FF0E00018B17000E00018C1708
:101CD80000018A510001946F00018B510001956F3A
:101CE80000018C510001966F0001976B8E0E000168
:101CF800985F000198AF19D000019851800A00013F
:101D08008E6FF10E800A00018E5DD8A012D00001FE
:101D1800D8900001973300019633000195330001F4
:101D280094330001983FF3D720D0170E000198652F
:101D380019D0000E00018A6F000E00018B6F000E93
:101D480000018C6F000E00018D6F2AD00001D89021
:101D58000001943700019537000196370001973745
:101D68000001980700019867F1D700019351D8B492
:101D78000FD00001971F0001961F0001951F000159
:101D8800946D000E0001952300019623000197230E
:101D980094C08AF095C08BF096C08CF097C08DF0F7
:101DA800120000016351D8B408D00001605100014D
:101DB800611100016211D8A414D0000E0001606FF7
:101DC800000E0001616F000E0001626F6ED000010D
:101DD800632B0001D89000016233000161330001D8
:101DE8006033000E000160150001656F000E0001F0
:101DF80061150001666FFE0E000162150001676F34
:101E08000001655166116711D8B414D0E0D70001FC
:101E1800632B010E00016027000E00016123000EF4
:101E2800000162230001D890000162330001613390
:101E380000016033000E000160150001656F000E9F
:101E4800000161150001666FFF0E000162150001B7
:101E5800676F0001655166116711D8B40BD0D7D7E9
:101E6800000163070001D890000160370001613765
:101E780000016237000161AFF3D7000163B102D0FE
:101E88000001619F0001D890633300016351000194
:101E9800621300016451D8B402D00001628F60C09F
:101EA80060F061C061F062C062F01200000E956ED1
:101EB80095CF94FF94CF93FF93CF92FFC00EF26E0D
:101EC800000E0001826F000E0001816F340E0001C8
:101ED800806FF20EE82EFED7802FFCD7D388D38AE6
:101EE800D38C000E926E000E806E948E949C000E21
:101EF8000001826F010E0001816F00018251800A8A
:101F0800800F330ED8B4815DD8B00DD01A0E000101
:101F1800806FF80EE82EFED7802FFCD700D0000186
:101F2800814B822BEAD7000E846E000E816E93805F
:101F3800938293849386938841EC1AF08CEC1AF080
:101F4800010E0001636F020EC3EC16F07F0E000154
:101F5800656FF60E0001646F7CEC14F0F3EC11F081
:101F68008CEC1AF0010E0001636F010EC3EC16F041
:101F78007F0E0001656F580E0001646F7CEC14F051
:101F8800070E9AEC17F0000E556EA4EC18F0FF0E31
:101F9800EAEC19F0FF0ED7EC19F012000FC013F09D
:101FA800146A156A0E34133601E314801350166E42
:101FB800166601D00CD012C013F0146A156A1134D9
:101FC800133601E3148013501B6E1B6607D0000EF6
:101FD8000D6E000E0E6E000E0F6E51D01B507B0F53
:101FE80016260FC01BF012501B1A800E1B160E8EE1
:101FF800118EFF0E1016FF0E1116000E1216000E8F
:10200800176E000E186E000E196E070E1A6E0DA0D0
:1020180006D0105017261150182212501922D890A5
:102028000F320E320D32D8901036113612361A2E63
:10203800EED7090E1A6E0DA006D0105017261150B3
:10204800182212501922D8900F320E320D32D89021
:102058001932183217321A2EEED717C001F018C0ED
:1020680002F019C003F016C004F01BC005F0D6EC4E
:1020780013F001C00DF002C00EF003C00FF0120003
:10208800000E00016B6F00016951800AF36E800E2B
:10209800F35C000ED8B4685DD8B009D00001686D53
:1020A8000001691FD8B0692B010E00016B6F000198
:1020B8006751800AF36E800EF35C000ED8B4665D3B
:1020C800D8B009D00001666D0001671FD8B0672B32
:1020D800010E00016B1B000E00016D6F000E000168
:1020E8006C6F000169516811D8B42CD0010E000141
:1020F8006A6F06D00001D8906837693700016A2BEB
:10210800000169AFF7D70001D8906C376D3700012F
:1021180068510001665D0001695100016759D8A046
:102128000AD0000168510001665F00016951000191
:10213800675B00016C810001D89069336833000146
:102148006A2FE1D700016B51D8B406D000016C6D3D
:1021580000016D1FD8B06D2B6CC066F06DC067F0C4
:102168001200000E0001686F000E0001696F000E7A
:1021780000016A6F000E00016B6F00016751641166
:1021880065116611D8B44ED0010E00016C6F0CD0E9
:102198000001D890000164370001653700016637F7
:1021A8000001673700016C2B000167AFF1D7000110
:1021B800D890000168370001693700016A370001CB
:1021C8006B37000164510001605D00016551000139
:1021D800615900016651000162590001675100010F
:1021E8006359D8A012D0000164510001605F00015A
:1021F80065510001615B000166510001625B0001ED
:1022080067510001635B000168810001D8900001FB
:102218006733000166330001653300016433000150
:102228006C2FC5D768C060F069C061F06AC062F001
:102238006BC063F01200000162AF20D0000160C0E3
:1022480066F0000161C067F0000162C068F000013B
:10225800661F671F681F662B000E67236823000E22
:10226800000166250001606F000E00016721000172
:10227800616F800E000168210001626F000165AF87
:1022880020D0000163C066F0000164C067F000015F
:1022980065C068F00001661F671F681F662B000E87
:1022A80067236823000E000166250001636F000E96
:1022B800000167210001646F800E000168210001A0
:1022C800656F000E0001601B000E0001611B800E8F
:1022D8000001621B000E0001631B000E0001641B5D
:1022E800800E0001651B000163510001605D000163
:1022F8006451000161590001655100016259D8B06B
:1023080002D0D89001D0D88012001EC020F0216AD7
:10231800226A1D34203601E3218020502A6E2A6665
:1023280001D038D0170E206E1CC021F01DC022F03D
:102338001EC023F02028246E04D0D89023322232E5
:102348002132242EFAD72150256E1D8EFF0E1C1621
:10235800FF0E1D16000E1E161C50266E1D50276EF1
:102368001E50286E296A8E0E2A5E2AAE10D02A5078
:10237800800A206EF10E800A205CD8A00BD0D8907D
:1023880029322832273226322A3EF9D714D0170E9E
:102398002A640FD0000E1C6E000E1D6E000E1E6EFD
:1023A800000E1F6E1BD0D8902636273628362936C1
:1023B8002A062A66F8D72550D8B408D0291E281E20
:1023C800271E266C000E27222822292226C01CF050
:1023D80027C01DF028C01EF029C01FF01200330EC0
:1023E8005BEC1AF0010E9AEC17F021EE6EF010EE8D
:1023F8006EF0120EDECFE6FFE82EFCD77F0E00014E
:102408006B6FBC0E00016A6F000E00016D6F0B0E42
:1024180000016C6F4EEC1AF0010E9AEC17F00001F7
:10242800000E00016B6F00016E0E00016A6F000E56
:1024380000016D6F120E00016C6F4EEC1AF0020E67
:102448009AEC17F07F0E00016B6F680E00016A6F3F
:10245800000E00016D6F0E0E00016C6F4EEC1AF04D
:10246800020E9AEC17F07F0E00016B6FDE0E000172
:102478006A6F000E00016D6F080E00016C6F4EEC64
:102488001AF0020E9AEC17F07F0E00016B6FDE0E49
:1024980000016A6F000E00016D6F080E00016C6F7D
:1024A8004EEC1AF0020E9AEC17F0120081B081A2DD
:1024B80005D081A481A602D081B854D081B081B260
:1024C80005D081B481A602D081B83AD081A081A27A
:1024D8000AD081B481A607D081A805D0FF0E0001DB
:1024E800616FFE0E43D081B081A205D081B481B660
:1024F80002D081B832D081B081A205D081B481A642
:1025080002D081A808D081B081A20AD081B481B656
:1025180007D081B805D0000E0001616F020E26D0E9
:1025280081A081B205D081B481A602D081B8D6D766
:1025380081B081B20AD081A481A607D081A805D034
:10254800000160690001616913D081B081A20AD0DD
:1025580081A481B607D081A805D0000E0001616F63
:10256800010E04D0000E0001616F000E0001606FC3
:102578001200000E0001656F00016151800AF36EC0
:10258800800EF35C000ED8B4605DD8B009D00001AD
:10259800606D0001611FD8B0612B010E0001656FED
:1025A80000016351800AF36E800EF35C000ED8B40C
:1025B800625DD8B006D00001626D0001631FD8B01B
:1025C800632B000163516211D8B426D0010E0001BB
:1025D800646F06D00001D890623763370001642B1E
:1025E800000163AFF7D7000162510001605D00018F
:1025F800635100016159D8A008D00001625100015F
:10260800605F000163510001615B0001D890633392
:1026180062330001642FE7D700016551D8B406D0B2
:102628000001606D0001611FD8B0612B60C060F0CF
:1026380061C061F01200000E0001696F000E000118
:10264800686F25D000016951010D000162C066F074
:10265800000163C067F0F35000016627F4500001E1
:10266800672366C0F6FF67C0F7FFF86A070EF764CE
:1026780003D00800F55005D0F6CFE9FFF7CFEAFF01
:10268800EF500009D8A469C068F00001692B000167
:1026980069510001666F676B000164510001665D56
:1026A8000001655100016759D8A0CCD7000E000180
:1026B800696F19D0000162C0F6FF000163C0F7FF1F
:1026C800F86A070EF76403D00800F55005D0F6CF76
:1026D800E9FFF7CFEAFFEF5083EC1AF00001624BF5
:1026E800632B0001692B000169510001685DD8A0C6
:1026F8001200E0D7000EF26E000E956E000E966E78
:102708008492C180C182C184C18687EC16F08CECAA
:102718001AF0010E0001636F010EC3EC16F07F0E74
:102728000001656FEF0E0001646F7CEC14F05AEC49
:102738000FF080840001ED05D8A405D0A4EC18F0B2
:10274800000E0001ED6F0001EC05D8A41ED08CEC42
:102758001AF0010E0001636F020EC3EC16F07F0E33
:102768000001656FC80E0001646F7CEC14F0000E68
:102778000001EC6F4F0EAB16AC9ACF0E9D1682EC93
:102788000DF0330E5BEC1AF0D5D70001EB05D8A499
:10279800D1D7000E0001EB6F4F0EAB16AC9ACF0EDF
:1027A8009D16C8D70450D8B405D0015002100310A4
:1027B800D8A40CD0000E016E000E026E000E036E3F
:1027C80044D0042AD890033202320132000E011498
:1027D800066E000E0214076EFE0E0314086E0650F5
:1027E80007100810D8B40CD0ECD7042A010E012623
:1027F800000E0222000E0322D89003320232013268
:10280800000E0114066E000E0214076EFF0E03146C
:10281800086E065007100810D8B406D0E6D704068C
:10282800D89001360236033602AEF9D704A0029ECC
:10283800D8900432045003120550D8A4038E01C066
:1028480001F002C002F003C003F01200000174514D
:10285800711172117311D8B442D0010E0001756F55
:102868000CD00001D89000017137000172370001C7
:102878007337000174370001752B000174AFF1D76D
:102888000001715100016D5D0001725100016E5926
:102898000001735100016F59000174510001705912
:1028A800D8A010D00001715100016D5F0001725174
:1028B80000016E5B0001735100016F5B00017451F0
:1028C8000001705B0001D89000017433000173337C
:1028D80000017233000171330001752FD1D76DC02B
:1028E8006DF06EC06EF06FC06FF070C070F01200C7
:1028F800000E0001696F000E0001686F23D000010F
:1029080064C066F0000165C067F00001685100010D
:102918006627000169510001672366C0F6FF67C09A
:10292800F7FFF86A070EF76403D00800F55005D0E2
:10293800F6CFE9FFF7CFEAFFEF505FEC18F00001A0
:10294800684B692B000164C066F0000165C067F040
:1029580000016851000166270001695100016723E1
:1029680066C0F6FF67C0F7FFF86A070EF76403D082
:102978000800F55005D0F6CFE9FFF7CFEAFFEF5092
:102988000009D8B41200BBD7330E5BEC1AF0000E66
:1029980000016C6F000E00016B6F1CD0000167C056
:1029A80069F0000168C06AF000016B5100016927F5
:1029B80000016C5100016A2369C0F6FF6AC0F7FF85
:1029C800F86A0800F55070EC1AF0ACA2FED70001C6
:1029D8006B4B6C2B000167C069F0000168C06AF09E
:1029E80000016B510001692700016C5100016A2345
:1029F80069C0F6FF6AC0F7FFF86A0800F5500009D9
:102A0800D8A4CCD74F0EAB16AC9ACF0E9D16120099
:102A1800330E5BEC1AF00001000E0001A06F0001FC
:102A2800D10E00019F6F7F0E0001A26FB90E000149
:102A3800A16FCFC0A3F0D0C0A4F00EEC00F0000E40
:102A48000001E66F000E0001E56F12D00001D10E03
:102A58000001E525D96E0001000E0001E621DA6EBD
:102A6800DF5070EC1AF0ACA2FED70001E54BE62B64
:102A78000001D10E0001E525D96E0001000E00010C
:102A8800E621DA6EDF50D8A4E1D74F0EAB16AC9A28
:102A9800CF0E9D1612000001656F000EAC6E000E81
:102AA800AB6E000165B1AC88000165A302D0AC8CA7
:102AB800AB8C000165B5AC8E000165A702D0AB8870
:102AC80001D0AB8A000165B9AC849E98000165BB52
:102AD800AB86000165AD02D09D8A01D09D9A9E9A71
:102AE800000165AF02D09D8801D09D9860C0AFFFFE
:102AF800000161C062F062C063F00001646B000114
:102B08006351B06EAC8AAB8E949C948EACB8ACBE5C
:102B180001D0948C12008E0E0001706F0CD0000151
:102B2800D89000016B3300016A330001693300015A
:102B380068330001702B000E0001681500016C6FEE
:102B4800000E0001691500016D6F000E00016A1585
:102B580000016E6FFF0E00016B1500016F6F000121
:102B68006F516C116D116E11D8A4D9D768C060F07F
:102B780069C061F06AC062F070C063F0000E0001C5
:102B8800646FD5EC0EF060C068F061C069F062C097
:102B98006AF0120000019F6F000E0001A16F000E85
:102BA8000001A06F000E00019E6F000E00019D6FD6
:102BB800AE0E0001776F230E0001786F410E000101
:102BC800796F00019F518FEC19F068C074F069C0EB
:102BD80075F06AC076F0D0EC0CF074C08AF075C05D
:102BE8008BF076C08CF030EC0EF08AC099F08BC078
:102BF8009AF08CC09BF08DC09CF099C0A0F09AC050
:102C0800A1F0A0C060F0A1C061F0F4EC17F01200D0
:102C180000019F6F000E0001A16F000E0001A06F60
:102C2800000E00019E6F000E00019D6FAE0E0001A8
:102C3800776F230E0001786F410E0001796F000154
:102C48009F518FEC19F068C074F069C075F06AC0C4
:102C580076F0D0EC0CF074C08AF075C08BF076C0BA
:102C68008CF030EC0EF08AC099F08BC09AF08CC0D2
:102C78009BF08DC09CF099C0A0F09AC0A1F0A0C0B4
:102C880060F0A1C061F018EC18F01200000E0A6E96
:102C9800000E096E1CD005C007F006C008F00950E8
:102CA80007260A50082207C0F6FF08C0F7FFF86A8F
:102CB800070EF76403D00800F55005D0F6CFE9FFFA
:102CC800F7CFEAFFEF503DEC19F0094A0A2A05C090
:102CD80007F006C008F0095007260A50082207C066
:102CE800F6FF08C0F7FFF86A070EF76403D008007C
:102CF800F55005D0F6CFE9FFF7CFEAFFEF5000090E
:102D0800D8B41200C8D7000E74EC19F01A0E0001DE
:102D1800636FF80EE82EFED7632FFCD700D0030EA2
:102D2800FDEC19F0070E0001636F7D0EE82EFED74B
:102D3800632FFCD700F0030EFDEC19F00F0E000115
:102D4800636F480EE82EFED7632FFCD7030EFDEC09
:102D580019F0020EFDEC19F0020EFDEC19F0080E48
:102D6800FDEC19F0000EFDEC19F00C0EFDEC19F05D
:102D7800000EFDEC19F0060EFDEC19F01200000132
:102D8800646F00016405D8A418D0000163517F0F57
:102D98000001676F000167390F0B0001656F0001C3
:102DA80067510F0B0001666F00016551FDEC19F0CA
:102DB80000016651FDEC19F01CD000016451020AB3
:102DC800D8A417D000016351BF0F0001676F00013D
:102DD80067390F0B0001656F000167510F0B000188
:102DE800666F00016551FDEC19F000016651FDECBC
:102DF80019F01200316E000E336E000E326E000EA6
:102E0800306E000E2F6EAE0E106E230E116E410E38
:102E1800126E315010EC1AF009C00DF00AC00EF015
:102E28000BC00FF0D2EC0FF00DC01CF00EC01DF05F
:102E38000FC01EF089EC11F01CC02BF01DC02CF047
:102E48001EC02DF01FC02EF02BC032F02CC033F066
:102E580032C001F033C002F003EC19F01200316EF9
:102E6800000E336E000E326E000E306E000E2F6EA6
:102E7800AE0E106E230E116E410E126E315010EC14
:102E88001AF009C00DF00AC00EF00BC00FF0D2EC1A
:102E98000FF00DC01CF00EC01DF00FC01EF089EC25
:102EA80011F01CC02BF01DC02CF01EC02DF01FC04F
:102EB8002EF02BC032F02CC033F032C001F033C0FA
:102EC80002F020EC19F0120001EE00F06E0EEE6A2E
:102ED800E806FDE10001EE6BED6BEC6BEB6BEA6B6A
:102EE800E96B00EE42F01C0EEE6AE806FDE1F40E16
:102EF800F66E340EF76E000EF86E01EE6EF010EE00
:102F080012F00900F5CFEEFFE550E150FAE1340E7A
:102F1800F66E350EF76E000EF86E0900F5CF5EF00E
:102F28000900F5CF5FF000017EEF13F00001656F37
:102F3800000E0001666F000E0001666F22D0000EC1
:102F48000001616FFA0E0001606F3CEC18F0000E92
:102F58000001616FFA0E0001606F3CEC18F0000E82
:102F68000001616FFA0E0001606F3CEC18F0000E72
:102F78000001616FFA0E0001606F3CEC18F000016F
:102F8800662B000166510001655DD8A01200D7D7F5
:102F9800056E0504D8A410D004507F0F086E0838B9
:102FA8000F0B066E08500F0B076E065022EC1AF036
:102FB800075022EC1AF013D00550020AD8A40FD0FB
:102FC8000450BF0F086E08380F0B066E08500F0B21
:102FD800076E065022EC1AF0075022EC1AF0120085
:102FE800000160C062F0000161C063F0060ED89075
:102FF800000162376337E82EFAD762C064F063C015
:1030080065F065C0BBFF64C062F00001D890623310
:103018000001D8906233300E00016217BA50CF0B0E
:1030280000016211BA6E1200000160C062F0000176
:1030380061C063F0060ED890000162376337E82E4E
:10304800FAD762C064F063C065F065C0BEFF64C0B3
:1030580062F00001D89062330001D8906233300EDC
:1030680000016217BD50CF0B00016211BD6E120046
:10307800000E0001646F000E0001636F000E000176
:10308800646F000E0001636F0BD0030E0001626FC6
:10309800980EE82EFED7622FFCD70001634B642BF5
:1030A800000163510001605D000164510001615934
:1030B800D8A01200EAD70001636F000163510F0B1B
:1030C8000001616F00016351F00B0001626F8480A1
:1030D800000162390F0B74EC19F084840D0EE82E90
:1030E800FED700F084940001615174EC19F08484D7
:1030F8000D0EE82EFED700F0849412000001616FD7
:103108000C0EBA6E050EF66E000EF76E300EF86EE7
:103118000800F5CF60F0000160A103D000016269EA
:1031280003D0000E0001626F00016251D8B402D0D2
:10313800949201D09396CA9461C0CBFFCA841200BE
:10314800000E0001616F000E0001606F0001615107
:10315800800A800F140ED8B4605DD8B012D0010177
:10316800280E00016025D96E0101010E00016121C0
:10317800DA6E000EDF6E000E556E0001604B612B9B
:10318800E5D712000001000E0001A06F0001D10E6A
:1031980000019F6F7F0E0001A26FAF0E0001A16FAB
:1031A800CFC0A3F0D0C0A4F00EEC00F00001000ED8
:1031B8000001656F0001D10E0001646F7CEC14F012
:1031C8001200000E00019C1B000E00019D1B800ECA
:1031D80000019E1B99C08DF09AC08EF09BC08FF0A5
:1031E8009CC090F09DC091F09EC092F015EC09F043
:1031F8008DC099F08EC09AF08FC09BF0120001C06C
:1032080003F002C004F0060ED89003360436E82E08
:10321800FBD703C005F004C006F006C0BBFF05C01D
:1032280003F0D8900332D8900332300E0316BA5008
:10323800CF0B0310BA6E120001C003F002C004F0F5
:10324800060ED89003360436E82EFBD703C005F0E7
:1032580004C006F006C0BEFF05C003F0D8900332D4
:10326800D8900332300E0316BD50CF0B0310BD6E3D
:103278001200046E04500F0B026E0450F00B036E24
:10328800848003380F0BC1EC19F084840D0EE82EEE
:10329800FED700F084940250C1EC19F084840D0E1E
:1032A800E82EFED700F08494120000016E51000150
:1032B8007003F3CF72F0F4CF73F000016E51000188
:1032C8007103F3500001732700016F51000170036F
:1032D800F3500001732772C06EF073C06FF01200D4
:1032E8000001606F000160A102D0838801D083983B
:1032F800000160A302D0838A01D0839A000160A5EF
:1033080002D0838C01D0839C000160A702D0838EF9
:1033180001D0839E120000016B6F00016B51000108
:10332800606F0001616B0001626B8E0E0001636FBC
:10333800000E0001646FD5EC0EF060C068F061C04B
:1033480069F062C06AF012007F0E00016215000188
:10335800611100016011D8B409D0000E0001601B92
:10336800000E0001611B800E0001621B60C060F04E
:1033780061C061F062C062F01200016E01A002D06B
:10338800838801D0839801A202D0838A01D0839ACE
:1033980001A402D0838C01D0839C01A602D0838E25
:1033A80001D0839E12000001636FFE0E0001EE6FD4
:1033B8000001EE51FB0BCA6E000ECC6E9E929D92E0
:1033C800CA840001635182EC18F012000001616F99
:1033D800FE0E0001EE6F0001EE51FB0BCA6E000EEF
:1033E800CC6E9E929D92CA840001615166EC1AF0DF
:1033F80012000001626F84900001625174EC19F0B0
:103408008484060E0001616F300EE82EFED7612F0E
:10341800FCD700D0849412000C6E0C50016E026A26
:10342800036A8E0E046E000E056ED6EC13F001C012
:1034380009F002C00AF003C00BF01200036E84907A
:103448000350C1EC19F08484060E026E300EE82E8B
:10345800FED7022EFCD700D084941200F20E541628
:10346800ABAC03D05490ABB05480ABB45484ABB283
:103478005486AECF01F0015012009380F288F19C7F
:10348800F2929382F086F19AF0909384F088F19802
:10349800F092120000016BC063F000016AC062F094
:1034A8006CC064F06DC065F01FEC13F012000001F1
:1034B800666F000166C060F00001616B7C0E4FEC26
:1034C80015F012000001606F0C0EBD129494CA949E
:1034D80060C0CBFFCA8412000001606FACAC03D09F
:1034E800AC9054B2AC8060C0ADFF120041542B4E7A
:1034F800414D453D726F626F740D0A000000000176
:10350800616F0001615170EC1AF0ACB21200FDD786
:10351800000EFDEC19F0010EFDEC19F01200000E82
:0E35280022EC1AF0010E22EC1AF01200010043
:107E9C0000010000000A00000064000000E803007C
:107EAC000010270000A086010040420F0080969829
:107EBC000000E1F50500CA9A3B00803FCDCC3DD7D0
:107ECC00233C12833AB7D138C62737388635C0D60B
:107EDC0033CC2B32708930E7DB2EE53C1E42A20DF1
:107EEC0000803F00204100C842007A44401C4650AC
:107EFC00C34724744997184BBCBE4C6B6E4E03158C
:107F0C005079AD60F34971496E7465727275707415
:107F1C00696F6E20544D523200496E7465727275E1
:107F2C007074696F6E2052423000496E74657272C3
:107F3C00757074696F6E2052423100496E746572AF
:107F4C0072757074696F6E2052423200425420492F
:107F5C004E494349414C495A41444F0041542B50DE
:107F6C005357443D303030300D0A000A2B425453E5
:107F7C00544154453A310D0A000A2B425453544192
:107F8C0054453A330D0A000A2B425453544154457C
:107F9C003A340D0A000A434F4E4E4543543A4F4B68
:107FAC000D0A00496E7465676572203D20256400DA
:107FBC0041542B524F4C453D300D0A00434D44204B
:107FCC005441424C455400466C6F6174203D202551
:107FDC00660041542B494E510D0A0044656661758B
:107FEC006C7400496E6963696F00494E4943494F8F
:047FFC00003300004E
:020000040020DA
:08000000FFFFFFFFFFFFFFFF00
:020000040030CA
:0E0000002008191EFF8181FF0FC00FE00F4086
:00000001FF
